:100000000C94AC000C94D4000C94D4000C94D40048
:100010000C94D4000C94D4000C94D4000C94D40010
:100020000C94D4000C94D4000C94D4000C94D40000
:100030000C94D4000C94D4000C94D4000C94D400F0
:100040000C94E8080C94D4000C94B6080C94900816
:100050000C94D4000C94D4000C94D4000C94D400D0
:100060000C9432090C94D40007634236B79BD8A78E
:100070001A39685618AEBAAB558C1D3CB7CC5763CD
:10008000BD6DEDFD753EF6177231BF000000803F7B
:1000900008000000BE922449123EABAAAA2ABECD97
:1000A000CCCC4C3E00000080BEABAAAAAA3E000009
:1000B0000000BF000000803F000000000008417801
:1000C000D3BB4387D1133D190E3CC3BD4282AD2B38
:1000D0003E68EC8276BED98FE1A93E4C80EFFFBE30
:1000E00001C4FF7F3F000000000000000000250069
:1000F00028002B000000000023002600290000003B
:1001000000080002010000030407000000000000D6
:10011000000000000000240027002A00010204085B
:100120001020408001020408102001020408102061
:10013000040404040404040402020202020203038D
:10014000030303031112131415160A0B0C0D0E0FE3
:10015000000102030405510A11241FBECFEFD8E0AD
:10016000DEBFCDBF11E0A0E0B1E0E6EDFDE202C0F0
:1001700005900D92A236B107D9F723E0A2E6B1E0CF
:1001800001C01D92A138B207E1F710E0CCEAD0E03F
:1001900004C02197FE010E94DA16CB3AD107C9F7B5
:1001A0000E94DF0A0C94E9160C940000ECE2F2E0E5
:1001B000A089B18982E08C93A485B5851C92A6851F
:1001C000B7858FEC8C93108EA489B58986E08C93CB
:1001D000A289B3898C9180618C93A289B3898C9117
:1001E00088608C93A289B3898C9180688C930288F3
:1001F000F389E02D80818F7D80830895982F209151
:100200002B0281E0213208F043C080910702811166
:10021000FCCF80912A0232E03093070290930602CD
:100220009FEF909305021092040220930302AAE02C
:10023000B2E0E3EEF1E090E0291331C01092E20168
:100240009091E201880F892B8093E2018091E10176
:10025000813049F51092E1018091E2018093BB0069
:100260008091BC0083FDF8CF85EC8093BC00809129
:1002700007028230E1F3809105028F3FB1F0809157
:1002800005028032A1F080910502803391F084E074
:100290001092090210922B021092080208953D91CB
:1002A00031939F5FC9CF85EEE0CF80E0F1CF82E050
:1002B000EFCF83E0EDCF8091BF019091C001891B0A
:1002C000990B0895AF92BF92CF92DF92EF92FF9277
:1002D0000F931F93CF93DF936C017B018B01040F6E
:1002E000151FEB015E01AE18BF08C017D10759F00A
:1002F0006991D601ED91FC910190F081E02DC6014C
:100300000995892B79F7C501DF91CF911F910F9145
:10031000FF90EF90DF90CF90BF90AF900895089539
:1003200008950895FC01538D448D252F30E0842FCE
:1003300090E0821B930B541710F0CF96089501970D
:100340000895FC01918D828D981761F0A28DAE0FFA
:10035000BF2FB11D5D968C91928D9F5F9F73928F81
:1003600090E008958FEF9FEF0895FC01918D828DAD
:10037000981731F0828DE80FF11D858D90E008957A
:100380008FEF9FEF0895FC01918D228D892F90E0D2
:10039000805C9F4F821B91098F73992708958CE28F
:1003A00092E00E94C30121E0892B09F420E0822F12
:1003B000089580E090E0892B29F00E94CF018111FF
:1003C0000C9400000895FC01A48DA80FB92FB11D55
:1003D000A35ABF4F2C91848D90E001968F7399277B
:1003E000848FA689B7892C93A089B1898C91837059
:1003F00080648C93938D848D981306C00288F38952
:10040000E02D80818F7D80830895EF92FF920F937E
:100410001F93CF93DF93EC0181E0888F9B8D8C8DB0
:1004200098131AC0E889F989808185FF15C09FB7A4
:10043000F894EE89FF896083E889F9898081837067
:10044000806480839FBF81E090E0DF91CF911F9116
:100450000F91FF90EF900895F62E0B8D10E00F5F37
:100460001F4F0F731127E02E8C8D8E110CC00FB60D
:1004700007FCFACFE889F989808185FFF5CFCE01A5
:100480000E94E301F1CFEB8DEC0FFD2FF11DE35A3C
:10049000FF4FF0829FB7F8940B8FEA89FB89808128
:1004A0008062CFCF682F8CE292E00C940502CF934C
:1004B000DF93EC01888D8823B9F0AA89BB89E8898C
:1004C000F9898C9185FD03C0808186FD0DC00FB632
:1004D00007FCF7CF8C9185FFF2CF808185FFEDCFB0
:1004E000CE010E94E301E9CFDF91CF9108958330DF
:1004F00081F028F4813099F08230A9F00895873096
:10050000A9F08830C9F08430B1F4809180008F7DEB
:1005100003C0809180008F7780938000089584B518
:100520008F7784BD089584B58F7DFBCF8091B00017
:100530008F778093B00008958091B0008F7DF9CFC0
:10054000CF93DF93282F30E0F901E250FF4F8491E1
:10055000F901E45EFE4FD491F901E05DFE4FC491D4
:10056000CC23A1F081110E947702EC2FF0E0EE0F76
:10057000FF1FEC50FF4FA591B491EC91ED2381E06A
:1005800090E009F480E0DF91CF91089580E090E061
:10059000FACF1F93CF93DF93282F30E0F901E25079
:1005A000FF4F8491F901E45EFE4FD491F901E05DC3
:1005B000FE4FC491CC23A9F0162F81110E9477021F
:1005C000EC2FF0E0EE0FFF1FE651FF4FA591B49125
:1005D0008FB7F894EC91111108C0D095DE23DC930D
:1005E0008FBFDF91CF911F910895DE2BF8CF9CB57F
:1005F0009F7D9CBD9CB5937F9CBD9CB59C7F9CBD05
:100600009DB591609DBD682F809167030E94C902CE
:100610008091790390917A038230910538F0880FA8
:10062000991F880F991F05970197F1F70895209159
:100630006503309166034091670350916803241766
:10064000350721F0682F822F0C94C9020895CF93AB
:10065000DF9390E0FC01E45EFE4F2491805D9E4FAD
:10066000FC0184918823D1F090E0880F991FFC0150
:10067000EE5EFE4FA591B491FC01E651FF4FC5918E
:10068000D49161110EC09FB7F8948C91E22FE09540
:100690008E238C932881E223E8839FBFDF91CF9143
:1006A00008958FB7F894EC91E22BEC938FBFF6CFBF
:1006B0003FB7F8948091AA019091AB01A091AC0151
:1006C000B091AD0126B5A89B05C02F3F19F001964A
:1006D000A11DB11D3FBFBA2FA92F982F8827BC019C
:1006E000CD01620F711D811D911D42E0660F771FC4
:1006F000881F991F4A95D1F708958F929F92AF92C4
:10070000BF92CF92DF92EF92FF926B017C010E9429
:1007100058034B015C01C114D104E104F104B9F0A8
:100720000E945803681979098A099B09683E734039
:100730008105910580F321E0C21AD108E108F10892
:1007400088EE880E83E0981EA11CB11CE4CFFF90B8
:10075000EF90DF90CF90BF90AF909F908F900895D3
:100760002FB7F8946091A6017091A7018091A8011C
:100770009091A9012FBF089585ED8093BC008091D1
:10078000BC0084FDFCCF10920702089520918201E5
:10079000260F3327331F21323105ECF42091070255
:1007A000FC0190E080E0243069F082E00895A0919F
:1007B00082012191AC014E595E4FA40FB52FB11D9E
:1007C0002C930196861798F380918201680F6093AD
:1007D000820180E0089581E00895E091C001809158
:1007E000BF01E81730F4F0E0EF53FE4F808190E056
:1007F00008958FEF9FEF08959091C0018091BF0100
:100800002FEF3FEF981748F4E92FF0E0EF53FE4F3A
:10081000208130E09F5F9093C001C9010895CF927D
:10082000DF92EF92FF920F931F93CF93DF937C01A0
:10083000CB018A0120910802222389F0EB016B0190
:10084000C40ED51ECC15DD0569F06991D701ED9177
:10085000FC910190F081E02DC7010995F3CF642F41
:100860000E94C603C801DF91CF911F910F91FF90A5
:10087000EF90DF90CF900895CF93DF931F92CDB785
:10088000DEB76983209108022223F9F020912B0220
:10089000203258F021E030E0FC013383228390E0E5
:1008A00080E00F90DF91CF91089580910902E82FA9
:1008B000F0E0E65FFD4F998190838F5F809309029E
:1008C00080932B0281E090E0ECCF61E0CE010196B5
:1008D0000E94C603F7CFCF93C82F8091470391E0C2
:1008E0009093080280932A021092090210922B0220
:1008F00064EF8FE093E00E943C046C2F8FE093E064
:100900000E943C0481E0CF910C94FE0090E080E0D6
:1009100008958EBD00000DB407FEFDCF8EB508957D
:10092000CF93C82F80E00E94F7028C2F0E94890489
:10093000C82F81E00E94F7028C2FCF910895CF93AA
:10094000C82F80E00E94F7028C2F0E9489048FEF4D
:100950000E948904C82F81E00E94F7028C2FCF915A
:100960000895CF93DF93C82FD62F80E00E94F7021F
:100970008C2F8F7180620E948904C82F8D2F0E9456
:10098000890481E00E94F7028C2FDF91CF910895B6
:1009900080E00E949F0481FD0BC0682F626080E0B0
:1009A0000E94B10465E070E080E090E00C947D036B
:1009B0000895EF92FF920F931F93CF93DF93C82F69
:1009C0007B01142F80E00E94F7028C2F8F718062D0
:1009D0000E948904082FE701115020F089910E949C
:1009E0008904FACF81E00E94F702802FDF91CF9136
:1009F0001F910F91FF90EF9008950F931F93CF9346
:100A0000DF93D62F8A0190914703C1E0C09308027B
:100A100090932A021092090210922B02682F8FE005
:100A200093E00E943C0481E00E94FE008091470315
:100A3000C093080280932A021092090210922B029E
:100A4000909107029111FCCF91E09093070290934F
:100A500006022FEF20930502109204022D0F20931F
:100A600003029093E2019091E201880F892B809319
:100A7000E2018091E101813089F51092E1018091DC
:100A8000E2018093BB008091BC0083FDF8CF85EC30
:100A90008093BC00809107028130E1F380910402D1
:100AA0008D1710F4D0910402A3EEB1E0E1ECF1E077
:100AB000C0E0CD1315C01092C001C093BF01D0E0BB
:100AC0008091C001C81781F08FE093E00E94FC0381
:100AD000F801ED0FF11D8083DF5FF2CF85EED8CFF7
:100AE0008D918193CF5FE5CF81E0DF91CF911F9111
:100AF0000F910C94FE00CF92DF92EF92FF92CF9372
:100B0000DF938EE20E946B0465E070E080E090E08D
:100B10000E947D0348E453E062E086EF0E94FD04FA
:100B2000C9E2D3E02F8D38A132272327322750E0A6
:100B300040E08C899D89281B390B41095109AA89FC
:100B4000BB890E94FA136B017C018FE0F594E79456
:100B5000D794C7948A95D1F76C857D85072E000CB4
:100B6000880B990B2BE0660F771F881F991F2A951A
:100B7000D1F72E853F85032E000C440B550B2C0D11
:100B80003D1D4E1D5F1D0E94B316C20ED31EE41EF6
:100B9000F51ECE8ADF8AE88EF98EDF91CF91FF9025
:100BA000EF90DF90CF9008954F925F926F927F9277
:100BB0008F929F92AF92BF92CF92DF92EF92FF926D
:100BC000CF93DF9300D000D000D0CDB7DEB79E83A7
:100BD0008D830E947B0580914B038295880F880F3F
:100BE000807C8C5C0E946B04E0914B03F0914C0381
:100BF000EE0FFF1FE35BFC4F60817181072E000C3D
:100C0000880B990B0E947D0348E453E063E086EF74
:100C10000E94FD04E0914B03F0914C0340903F0390
:100C200050904003609041037090420320EA421AC2
:100C30002FE0520A61087108A3019201C301B201B9
:100C40000E94C8134B015C01BCE0B594A794979433
:100C50008794BA95D1F7A0912D03B0912E030E94ED
:100C6000D2166B017C018DE0F594E794D794C7947C
:100C70008A95D1F7A0912F03B0913003A50194017B
:100C80000E94D2169C01552737FD5095452F2C0DFB
:100C90003D1D4E1D5F1D2E5F3F4F4F4F5F4F62E06A
:100CA00055954795379527956A95D1F730584F4F09
:100CB0005F4FA0913903B0913A030E94FA139B0150
:100CC000AC017FE056954795379527957A95D1F7F2
:100CD00029833A834B835C8380914803C090490306
:100CE000D12CF12CE12CFE2CED2CDC2CCC24E82A90
:100CF00080914A03C82A88E090E08E1B9F0B04C0B5
:100D0000F594E794D794C7948A95D2F7A0913103CC
:100D1000B0913203A50194010E94D2164B015C01EF
:100D2000BBE0B594A79497948794BA95D1F7A09116
:100D30002B03B0912C03A30192010E94D2162BE049
:100D400095958795779567952A95D1F7860E971E85
:100D5000A81EB91E8091290390912A03092E000C28
:100D6000AA0BBB0B32E0880F991FAA1FBB1F3A9535
:100D7000D1F7880D991DAA1DBB1D4C015D010E2EDA
:100D800004C0880C991CAA1CBB1C0A94D2F732E040
:100D9000830E911CA11CB11C42E0B594A7949794BA
:100DA00087944A95D1F7A7019601281939094A096C
:100DB0005B0960E573EC80E090E004C09595879551
:100DC00077956795EA95D2F70E94C81397FD5CC0A6
:100DD000660F771F881F991F29813A814B815C819B
:100DE0000E94D81369017A019927F7FC9A958F2DF3
:100DF0007E2D6D2D9B01AC010E94C8139B01AC019F
:100E0000AEEDBBE00E94FA134B015C01A3E4B3EE2C
:100E1000A70196010E94D5169C01552737FD5095D4
:100E2000452F4501BB2497FCB094AB2C280D391DF0
:100E30004A1D5B1D2153314F4F4F5F4F74E0559555
:100E40004795379527957A95D1F7C20ED31EE41EA4
:100E5000F51EED81FE81C082D182E282F382269668
:100E60000FB6F894DEBF0FBECDBFDF91CF91FF90DC
:100E7000EF90DF90CF90BF90AF909F908F907F903A
:100E80006F905F904F90089529813A814B815C81EA
:100E90000E94D81369017A01CC0CDD1CEE1CFF1CEA
:100EA000A3CFEF92FF920F931F93CF93DF930E94F4
:100EB000B003009124031091250320912603309163
:100EC0002703601771078207930740F410922403E9
:100ED00010922503109226031092270320912803D5
:100EE000211119C00091240310912503209126039C
:100EF00030912703601B710B820B930B603D774091
:100F00008105910540F481E0DF91CF911F910F9110
:100F1000FF90EF900895109228030E94B003609311
:100F20002403709325038093260390932703109244
:100F30001F0310921E0310921D0310921C031092A7
:100F40001B0361E0809121030E94C9026AEF70E0F7
:100F500080E090E00E947D0361E0809121030E9487
:100F6000270360E0809121030E94C90264E170E0E0
:100F700080E090E00E947D03F89461E0809121037D
:100F80000E94C9028BE990E00197F1F760E080913F
:100F900021030E94270310E081E0C0E0D0E0E82EAA
:100FA000F12C809121030E94A0028E159F0519F457
:100FB000DF5FDF3FB1F7809121030E94A002DF3F96
:100FC000C1F0C43098F0C0FD11C0E12FE695E69560
:100FD000E695F0E0E55EFC4F9081990F90832091BB
:100FE00023032D1710F4916090831F5FCF5FC535E9
:100FF000A9F678941832B8F040911F0320911B0392
:1010000080911C03280F3327331F80911D03280F65
:10101000311D80911E03820F932F911D9927481730
:10102000190609F470CF80E06FCFFC010190002019
:10103000E9F73197AF01481B590BBC018CE292E0F4
:101040000C9462018F929F92AF92BF920F931F9365
:10105000CF93DF93CDB7DEB7A1970FB6F894DEBF7D
:101060000FBECDBF19A2423008F44AE08E010F5DD9
:101070001F4F842E912CB12CA12CA50194010E940C
:10108000D813E62FB901CA01EA30F4F4E05DD801C3
:10109000EE938D01232B242B252B79F790E080E014
:1010A000109719F0CD010E941508A1960FB6F8947B
:1010B000DEBF0FBECDBFDF91CF911F910F91BF90CB
:1010C000AF909F908F900895E95CE1CFCF92DF922F
:1010D000EF92FF92CF93DF9397FF19C06B017C01D2
:1010E0008DE20E945202EC0166277727CB016C1932
:1010F0007D098E099F094AE00E9422088C0F9D1FDE
:10110000DF91CF91FF90EF90DF90CF9008954AE06C
:10111000DF91CF91FF90EF90DF90CF900C94220859
:101120001F920F920FB60F9211242F933F934F935C
:101130005F936F937F938F939F93AF93BF93EF933F
:10114000FF938CE292E00E94E301FF91EF91BF9147
:10115000AF919F918F917F916F915F914F913F914F
:101160002F910F900FBE0F901F9018951F920F9206
:101170000FB60F9211242F938F939F93EF93FF93AA
:10118000E0913C02F0913D028081E0914202F091B9
:10119000430282FD1BC09081809145028F5F8F7357
:1011A00020914602821741F0E0914502F0E0E45DB3
:1011B000FD4F958F80934502FF91EF919F918F9105
:1011C0002F910F900FBE0F901F9018958081F4CF34
:1011D0001F920F920FB60F9211242F933F938F936C
:1011E0009F93AF93BF938091A6019091A701A09187
:1011F000A801B091A9013091A50123E0230F2D375B
:1012000058F50196A11DB11D2093A5018093A6015B
:101210009093A701A093A801B093A9018091AA017E
:101220009091AB01A091AC01B091AD010196A11DCF
:10123000B11D8093AA019093AB01A093AC01B09330
:10124000AD01BF91AF919F918F913F912F910F90E1
:101250000FBE0F901F90189526E8230F0296A11D30
:10126000B11DD2CF1F920F920FB60F9211242F9360
:101270003F934F935F936F937F938F939F93AF931E
:10128000BF93EF93FF938091B900887F803609F474
:101290004AC0F0F5883209F4A7C018F5803109F486
:1012A0009BC0B8F4882309F4F9C0883009F494C0CD
:1012B000FF91EF91BF91AF919F918F917F916F912E
:1012C0005F914F913F912F910F900FBE0F901F9004
:1012D0001895883109F488C0803251F7809305024F
:1012E00014C0803409F49DC040F48033B9F38833CE
:1012F000F9F68093050285ECB0C0803509F485C00D
:10130000883509F496C0883499F60E94BC03D0CF82
:10131000883909F48CC038F5883729F050F48836BC
:1013200011F0803729F683E0809307021092A40120
:1013300057C0883809F47BC0803919F0803809F02B
:10134000B7CF8091A401803208F071C0E091A40170
:1013500081E08E0F8093A4018091BB00F0E0EC57F8
:10136000FE4F80833DC0803B39F0E0F4803A09F4C1
:1013700079C0883A09F09CCF84E0809307021092EC
:10138000830110928201E091B101F091B2010995BF
:101390008091820181110FC081E0809382011092BF
:1013A000620109C0803C09F4A6CF883C09F4A3CFB0
:1013B000883B09F07DCFE091830181E08E0F80931F
:1013C0008301F0E0EE59FE4F80818093BB00909145
:1013D00083018091820129C08091E2018093BB004A
:1013E00085EC8093BC0064CF90910402809103024D
:1013F000981758F5E091040281E08E0F8093040263
:10140000F0E0ED51FE4F8081E9CFE091040281E0F0
:101410008E0F809304028091BB00F0E0ED51FE4FEF
:10142000808390910402809103029817C8F285E8A6
:10143000D8CFE091040281E08E0F80930402809166
:10144000BB00F0E0ED51FE4F8083809106028111D8
:101450005CCF81E08093E10184EA8093BC0010922C
:10146000070226CF85EC8093BC0010920702809182
:10147000A401803230F4E091A401F0E0EC57FE4F7B
:1014800010826091A40170E0E091AF01F091B00191
:1014900084E891E009951092A4010ACF1092050208
:1014A00034CFECE2F2E01382128288EE93E0A0E007
:1014B000B0E084839583A683B78320E131E0318354
:1014C000208325EC30E03587248724EC30E0378713
:1014D000268720EC30E0318B208B21EC30E0338B01
:1014E000228B22EC30E0358B248B26EC30E0378BDE
:1014F000268B118E128E138E148EE9ECF2E016827A
:101500001782108611861286138614861586168613
:101510001786108A118A128A138A148A158AEFE0B4
:10152000F3E01382128284839583A683B78382E2D9
:1015300091E091838083E5E6F3E089E090E0918398
:1015400080838AE090E093838283168280E287839F
:10155000108685E0868785E090E0A0E0B0E0848B8F
:10156000958BA68BB78B1186E9E2F3E087E7868F30
:1015700085E090E095A384A388E090E097A386A3FC
:101580008EE090E091A780A78AE190E093A782A7E0
:1015900014A615A616A617A610AA11AA12AA13AA6F
:1015A000128E138E148E158EEBE1F3E088E08683A5
:1015B00086E1878386E0808781E085870895CF93E1
:1015C000DF9300D000D0CDB7DEB7789484B58260C9
:1015D00084BD84B5816084BD85B5826085BD85B5D7
:1015E000816085BD80916E00816080936E00109255
:1015F00081008091810082608093810080918100D0
:101600008160809381008091800081608093800060
:101610008091B10084608093B1008091B0008160BE
:101620008093B00080917A00846080937A008091EA
:101630007A00826080937A0080917A008160809342
:101640007A0080917A00806880937A001092C100BD
:1016500010920B0310920C0310920D0310920E03C4
:101660001092CB021092CC021092CD021092CE02B8
:101670000E94B0036B017C014B015C0128EB820EE0
:101680002BE0921EA11CB11C0E94B0036C157D05BD
:101690008E059F0528F086169706A806B906A0F7BE
:1016A00068EE73E080E090E00E947D030E94D60027
:1016B0000E94B0036093CB027093CC028093CD0262
:1016C0009093CE0280E391E00E9415080E94B0033F
:1016D0006B017C014B015C013AE0830E911CA11C63
:1016E000B11C0E94B0036C157D058E059F0528F086
:1016F00086169706A806B906A0F781E08093DF0258
:101700000E94D60080916503909166032091670343
:10171000309168038217930719F061E00E94270354
:10172000809167039091680320916503309166036F
:101730002817390719F061E00E9427031FB7F894B2
:101740008091AE01811127C0EAE3F1E08491E6E2E5
:10175000F1E09491E82FF0E0EE0FFF1FEE5EFE4FF8
:10176000A591B491EC91E92321F461E08AE00E9413
:10177000C90261E08AE00E9427038CB580618CBDBC
:101780008CB580648CBD61E08DE00E94270361E030
:101790008BE00E9427038091AE018F5F8093AE01A2
:1017A0001FBF80E00E94170381E00E94F70265E0FE
:1017B00070E080E090E00E947D036CE080E00E9499
:1017C000B1046FE584E00E94B10486E00E949F04AA
:1017D000877D182F10628BE990E0A0E0B0E0809345
:1017E000750390937603A0937703B0937803612FEA
:1017F00086E00E94B10486E00E949F04181303C093
:1018000081E080936B0386E00E949F0486E00E9443
:101810009F0445E550E060E070E04093750350930D
:1018200076036093770370937803682F677D86E073
:101830000E94B10486E00E949F0480E00E94F702AB
:1018400080E50E94890483E70E94890481E00E9468
:10185000F70260E08DE10E94B10460E08CE10E943B
:10186000B10410926D0360E787E00E94B1046CE45C
:1018700085E00E94B10482EE0E94900481EE0E94F5
:1018800090040E94C80480E00E949F04682F6E7F2D
:1018900080E00E94B1044091730350E066E071E083
:1018A0008EE693E00E94E016EAE4F1E08491409134
:1018B000730366E071E00E94D904E4E4F1E08491EE
:1018C00060916C030E94B10482E00E949F0440E595
:1018D000E42E41E0F42EF701949101E010E0B8010C
:1018E00001C0660F9A95EAF7682B82E00E94B10466
:1018F00086E00E949F04887F682F616086E00E94D6
:10190000B1040E94C80480E00E949F04682F6160B7
:1019100080E00E94B10460E787E00E94B10481E0AA
:101920000E94170380916E03882309F46AC24091D4
:1019300073036EE673E08AE00E94D9048DE10E9491
:101940009F0481FF03C081EE0E9490041092B701B2
:101950001092B8011092B9011092BA0160E0809122
:1019600021030E94270361E0809121030E94C902A4
:10197000109224031092250310922603109227033D
:1019800060ED77E080E090E00E947D031092C0015E
:101990001092BF011092090210922B0210920702BE
:1019A00081E0809306021092E10161E082E10E94F1
:1019B000C90261E083E10E94C9028091B9008E7F73
:1019C0008093B9008091B9008D7F8093B90080E247
:1019D0008093B80085E48093BC0080E991E0909307
:1019E000B2018093B10181E991E09093B0018093BD
:1019F000AF0148E453E062E08AEA0E94FD0480916E
:101A000048039091490398278927982790932A03A0
:101A10008093290348E453E062E08CEA0E94FD04CD
:101A2000809148039091490398278927982790939C
:101A30002C0380932B0348E453E062E08EEA0E947B
:101A4000FD0480914803909149039827892798279E
:101A500090932E0380932D0348E453E062E080EBE3
:101A60000E94FD048091480390914903982789279B
:101A7000982790933A038093390348E453E062E057
:101A800082EB0E94FD0480914803909149039827BE
:101A90008927982790933C0380933B0348E453E0C5
:101AA00062E084EB0E94FD04809148039091490319
:101AB00098278927982790933E0380933D0348E415
:101AC00053E062E086EB0E94FD0480914803909110
:101AD00049039827892798279093300380932F03F1
:101AE00048E453E062E088EB0E94FD0480914803E3
:101AF00090914903982789279827909332038093E0
:101B0000310348E453E062E08AEB0E94FD048091D7
:101B10004803909149039827892798279093340385
:101B20008093330348E453E062E08CEB0E94FD04B1
:101B3000809148039091490398278927982790938B
:101B400036038093350348E453E062E08EEB0E9455
:101B5000FD0480914803909149039827892798278D
:101B600090933803809337030E947B0581E090E0D7
:101B700090934C0380934B03109261031092620385
:101B80001092630310926403CE0101960E94D40563
:101B9000609161037091620380916303909164038B
:101BA0000E94AB1220ED38E447E85AE40E94811409
:101BB0009B01AC0160E070E080E89FE30E94141498
:101BC00026EF38E248EA50E40E942E156B017C01B2
:101BD00069817A818B819C810E94AB12A701960159
:101BE0000E9481146B017C016091590370915A032A
:101BF00080915B0390915C030E94AB129B01AC014E
:101C0000C701B6010E9415140E94F31460935D038E
:101C100070935E0380935F039093600324E6C22E6B
:101C2000D12CE12CF12C30E0232E30E0332E0E9419
:101C3000B003672B682B692B09F4F3C00E94B00333
:101C40000091BB011091BC012091BD013091BE01FA
:101C5000601771078207930708F40DC10091BB015B
:101C60001091BC012091BD013091BE014B015C017E
:101C7000801A910AA20AB30A950184010A3F11054C
:101C80002105310508F4D5C06093BB017093BC01F8
:101C90008093BD019093BE0124EF31E040E050E01D
:101CA0002093D7023093D8024093D9025093DA029E
:101CB0001092DB021092DC021092DD021092DE0222
:101CC0008091CF029091D002A091D102B091D20226
:101CD0008093D3029093D402A093D502B093D602FE
:101CE0000E94B0036093CF027093D0028093D10220
:101CF0009093D2020E94B0036093CB027093CC0207
:101D00008093CD029093CE020E94B0034B015C0100
:101D100081E491E00E9415084AE061E070E080E013
:101D200090E00E94220888E491E00E9415084AE0B1
:101D3000C501B4010E9422088AE491E00E941508BE
:101D40008091CF029091D002A091D102B091D202A5
:101D5000A5019401281B390B4A0B5B0BCA01B90181
:101D60004AE00E9422088AE491E00E9415086091EE
:101D7000CF027091D0028091D1029091D202009155
:101D8000D3021091D4022091D5023091D602601B6B
:101D9000710B820B930B4AE00E9422088CE491E0C5
:101DA0000E9415080E94B0034AE00E9422088EE4B7
:101DB00091E00E94150885E591E00E9415080E94B7
:101DC000B0034B015C012B013C0135E0430E511C7B
:101DD000611C711C0E94B003681579058A059B057A
:101DE00028F04616570668067906A0F70E94B00349
:101DF0006093CF027093D0028093D1029093D2026D
:101E000018C082E00E949F04F701E49001C0000F17
:101E1000EA94EAF70095602F682382E00E94B104FB
:101E20008DCD0E94B003623071058105910508F0E7
:101E300005CF8CE190E00E9484118C019A83898304
:101E400087E090E0A0E0B0E0F80180839183A28376
:101E5000B3830E945107882349F0809122038B307D
:101E600099F020F08551823008F409C160E070E0FB
:101E700080EC9FE710C06093BB017093BC0180931E
:101E8000BD019093BE01EACE60911D0370E090E029
:101E900080E00E94A91220E030E048EC52E40E9469
:101EA0000A134B015C0120E030E0A9010E942915D2
:101EB00020E030E040E05FE387FD07C1C501B401E9
:101EC0000E9415140E94F3146093B7017093B80137
:101ED0008093B9019093BA01A70196010E94B316AD
:101EE0002093B3013093B4014093B5015093B601F0
:101EF000CA01B9010E9466088EE20E9452028091D6
:101F0000B3019091B401A091B501B091B601F8016F
:101F100084839583A683B7836091B7017091B801DC
:101F20008091B9019091BA01A70196010E94B31660
:101F30006093B3017093B4018093B5019093B6019F
:101F40000E94660880E20E9452028091B301909143
:101F5000B401A091B501B091B601F80180879187D5
:101F6000A287B38787EB91E00E94D4056091B70107
:101F70007091B8018091B9019091BA010E94AB12A1
:101F80002DEC3CE445E053E40E94811420E030E075
:101F900048EC52E40E940A134B015C0120E030E05F
:101FA000A9010E94291520E030E040E05FE387FDB1
:101FB00091C0C501B4010E9415140E94F3146093EE
:101FC000B7017093B8018093B9019093BA01A7014A
:101FD00096010E94B3162093B3013093B40140934D
:101FE000B5015093B601CA01B9010E9466088EE29C
:101FF0000E9452028091B3019091B401A091B50169
:10200000B091B601F80184879587A687B78760915C
:10201000B7017091B8018091B9019091BA01A701FF
:1020200096010E94B3166093B3017093B40180933C
:10203000B5019093B6010E94660880E20E945202A8
:102040008091B3019091B401A091B501B091B60116
:10205000F801808B918BA28BB38B0E945107882350
:1020600049F0809122038B30D1F120F085518230EC
:1020700008F4DAC060E070E080EC9FE737C0709051
:102080001D03672D6F7770E090E080E00E94AB1237
:1020900020E030E040E853E40E940A134B015C0169
:1020A00060911E0370E090E080E00E94AB12A501F9
:1020B00094010E94151420E030E040E251E40E94B7
:1020C000811477FEE8CE9058E6CEC501B4010E9497
:1020D0001414F8CEC501B4010E9414146ECF60919F
:1020E0001B0370E090E080E00E94A91220E030E045
:1020F00048EC52E40E940A134B015C0120E030E0FE
:10210000A9010E94291520E030E040E05FE387FD4F
:10211000ACC0C501B4010E9415140E94F314609371
:10212000B7017093B8018093B9019093BA01A701E8
:1021300096010E94B3162093B3013093B4014093EB
:10214000B5015093B601D80154962D933D934D930C
:102150005C935797CA01B9010E9466088EE20E94FB
:1021600052026091B7017091B8018091B9019091CC
:10217000BA01A70196010E94B3166093B301709350
:10218000B4018093B5019093B6010E94660885E57D
:1021900091E00E9415088091B3019091B401A09143
:1021A000B501B091B601F801808F918FA28FB38FE6
:1021B00048015801FCE1AF0EB11CD4016D917D9135
:1021C0008D919D914D010E94660885E591E00E94E8
:1021D00015088A149B0489F788E591E00E94150888
:1021E00085E591E00E94150880916C03982E83305C
:1021F00010F092E0992E90916D03882E891891111C
:10220000812C80E00E94F70280EA0E948904FE018E
:1022100031965F019A94FFEF9F1661F1D5018D9180
:102220005D010E948904F6CF60911B0370E090E08D
:1022300080E00E94A91220E030E040E853E40E94D0
:102240000A134B015C0160911C0370E090E080E098
:102250000E94AB12A50194010E94151420E030E009
:1022600040E251E40E94811441CFC501B4010E94B3
:10227000141453CF8A94BFEF8B1621F080E00E9494
:102280008904F8CF81E00E94F70281E00E941703E1
:102290000E94B0034B015C018FEF0E949004807399
:1022A00031F50E94B003681979098A099B096036E3
:1022B00071058105910580F381E08093740368EED8
:1022C00073E080E090E00E947D030115110519F094
:1022D000C8010E9420122114310409F4A8CC0E94E4
:1022E000CF01882309F4A3CC0E940000A0CC80E099
:1022F0000E94170360E787E00E94B10484FFDFCFEC
:1023000081EE0E949004DBCF0F931F93CF93DF9356
:102310008230910510F482E090E0E0917F03F0912B
:10232000800330E020E0B0E0A0E0309799F4211580
:10233000310509F44AC0281B390B24303105D8F582
:102340008A819B816115710589F1FB0193838283E9
:10235000FE0111C040815181028113814817590744
:10236000E0F04817590799F4109761F012960C9312
:10237000129713961C933296CF01DF91CF911F9144
:102380000F91089500937F0310938003F4CF2115DC
:10239000310551F04217530738F0A901DB019A01CA
:1023A000BD01DF01F801C1CFEF01F9CF90938003A8
:1023B00080937F03CDCFFE01E20FF31F81939193B2
:1023C0002250310939832883D7CF20917D03309162
:1023D0007E03232B41F420910201309103013093BD
:1023E0007E0320937D03209100013091010121158E
:1023F000310541F42DB73EB74091040150910501DC
:10240000241B350BE0917D03F0917E03E217F30767
:10241000A0F42E1B3F0B2817390778F0AC014E5F54
:102420005F4F2417350748F04E0F5F1F50937E0310
:1024300040937D03819391939FCFF0E0E0E09CCFA8
:10244000CF93DF930097E9F0FC0132971382128259
:10245000A0917F03B0918003ED0130E020E0109760
:10246000A1F420813181820F931F20917D0330914F
:102470007E032817390709F061C0F0937E03E093CB
:102480007D03DF91CF910895EA01CE17DF07E8F5CC
:102490004A815B819E0141155105B1F7E901FB833A
:1024A000EA8349915991C40FD51FEC17FD0761F4D8
:1024B000808191810296840F951FE9019983888319
:1024C000828193819B838A83F0E0E0E012968D9174
:1024D0009C9113970097B9F52D913C911197CD01DF
:1024E0000296820F931F20917D0330917E0328175F
:1024F000390739F6309751F51092800310927F0317
:10250000B0937E03A0937D03BCCFD383C28340816D
:102510005181840F951FC817D90761F44E5F5F4F33
:1025200088819981480F591F518340838A819B81FB
:10253000938382832115310509F0B0CFF093800396
:10254000E0937F039ECFFD01DC01C0CF1382128296
:10255000D7CFE89409C097FB3EF49095809570958D
:1025600061957F4F8F4F9F4F9923A9F0F92F96E9DF
:10257000BB279395F695879577956795B795F11154
:10258000F8CFFAF4BB0F11F460FF1BC06F5F7F4FF1
:102590008F4F9F4F16C0882311F096E911C0772303
:1025A00021F09EE8872F762F05C0662371F096E80C
:1025B000862F70E060E02AF09A95660F771F881FDB
:1025C000DAF7880F9695879597F90895990F00087F
:1025D000550FAA0BE0E8FEEF16161706E807F907F5
:1025E000C0F012161306E407F50798F0621B730B90
:1025F000840B950B39F40A2661F0232B242B252B11
:1026000021F408950A2609F4A140A6958FEF811DB3
:10261000811D08950E941D130C948E130E94801337
:1026200038F00E94871320F0952311F00C94771353
:102630000C947D1311240C94C2130E949F1370F309
:10264000959FC1F3950F50E0551F629FF001729F57
:10265000BB27F00DB11D639FAA27F00DB11DAA1F66
:10266000649F6627B00DA11D661F829F2227B00DB3
:10267000A11D621F739FB00DA11D621F839FA00D3E
:10268000611D221F749F3327A00D611D231F849F8E
:10269000600D211D822F762F6A2F11249F575040E5
:1026A0009AF0F1F088234AF0EE0FFF1FBB1F661F60
:1026B000771F881F91505040A9F79E3F510580F029
:1026C0000C9477130C94C2135F3FE4F3983ED4F359
:1026D000869577956795B795F795E7959F5FC1F7CD
:1026E000FE2B880F911D9695879597F9089597F978
:1026F0009F6780E870E060E008959FEF80EC0895A8
:1027000000240A94161617061806090608950024D0
:102710000A9412161306140605060895092E03944A
:10272000000C11F4882352F0BB0F40F4BF2B11F4BE
:1027300060FF04C06F5F7F4F8F4F9F4F089557FD1D
:102740009058440F551F59F05F3F71F04795880F1F
:1027500097FB991F61F09F3F79F0879508951216B6
:1027600013061406551FF2CF4695F1DF08C0161662
:1027700017061806991FF1CF869571056105089413
:102780000895E894BB2766277727CB0197F908952A
:10279000DB018F939F930E94FA13BF91AF91A29F89
:1027A000800D911DA39F900DB29F900D112408954F
:1027B000A1E21A2EAA1BBB1BFD010DC0AA1FBB1F45
:1027C000EE1FFF1FA217B307E407F50720F0A21BB7
:1027D000B30BE40BF50B661F771F881F991F1A9424
:1027E00069F760957095809590959B01AC01BD014E
:1027F000CF0108950E940514A59F900DB49F900DE0
:10280000A49F800D911D11240895A29FB001B39F34
:10281000C001A39F700D811D1124911DB29F700DE9
:10282000811D1124911D08955058BB27AA270E948D
:102830002C140C948E130E94801338F00E9487137E
:1028400020F039F49F3F19F426F40C947D130EF414
:10285000E095E7FB0C947713E92F0E949F1358F340
:10286000BA17620773078407950720F079F4A6F575
:102870000C94C1130EF4E0950B2EBA2FA02D0B0172
:10288000B90190010C01CA01A0011124FF27591BB5
:1028900099F0593F50F4503E68F11A16F040A22FBB
:1028A000232F342F4427585FF3CF4695379527952C
:1028B000A795F0405395C9F77EF41F16BA0B620B2B
:1028C000730B840BBAF09150A1F0FF0FBB1F661F72
:1028D000771F881FC2F70EC0BA0F621F731F841FB5
:1028E00048F4879577956795B795F7959E3F08F0DB
:1028F000B0CF9395880F08F09927EE0F979587959D
:1029000008950E9495140C948E130E94871358F01A
:102910000E94801340F029F45F3F29F00C94771354
:1029200051110C94C2130C947D130E949F1368F3F1
:102930009923B1F3552391F3951B550BBB27AA2778
:1029400062177307840738F09F5F5F4F220F331FB2
:10295000441FAA1FA9F335D00E2E3AF0E0E832D07A
:1029600091505040E695001CCAF72BD0FE2F29D07D
:10297000660F771F881FBB1F261737074807AB074F
:10298000B0E809F0BB0B802DBF01FF2793585F4FC4
:102990003AF09E3F510578F00C9477130C94C213D3
:1029A0005F3FE4F3983ED4F3869577956795B795A6
:1029B000F7959F5FC9F7880F911D9695879597F9B1
:1029C0000895E1E0660F771F881FBB1F621773072A
:1029D0008407BA0720F0621B730B840BBA0BEE1F3F
:1029E00088F7E09508950E94FA146894B1110C9448
:1029F000C21308950E94A71388F09F5798F0B92F2B
:102A00009927B751B0F0E1F0660F771F881F991F23
:102A10001AF0BA95C9F714C0B13091F00E94C113F1
:102A2000B1E008950C94C113672F782F8827B85F01
:102A300039F0B93FCCF3869577956795B395D9F77B
:102A40003EF490958095709561957F4F8F4F9F4F85
:102A500008950E94E61208F48FEF0895FA01EE0F30
:102A6000FF1F309621053105A1F16115710561F453
:102A70008038BFE39B0749F168949038810561F085
:102A80008038BFEF9B0741F099234AF5FF3FE105EE
:102A90003105210519F1E8940894E795D901AA2395
:102AA00029F4AB2FBE2FF85FD0F310C0FF5F70F496
:102AB000A695E0F7F73950F019F0FF3A38F49F7710
:102AC0009F930DD00F9007FC9058089546F00C94FA
:102AD0007D1360E070E080E89FE308954FE79F7703
:102AE0005F934F933F932F930E9429162F913F910D
:102AF0004F915F910E940A130C94861529F416F0E9
:102B00000C9477130C94C1130C947D130E94A7139B
:102B1000A8F39638A0F707F80F92E8942BE33AEA67
:102B200048EB5FE70E9420130F920F920F924DB770
:102B30005EB70F920E947116E8E6F0E00E94B815A9
:102B40004F915F91EF91FF91E595EE1FFF1F49F0C7
:102B5000FE57E0684427EE0F441FFA95E1F74195D0
:102B6000550B0E94EB150F9007FE0C94DF1508958E
:102B7000DF93CF931F930F93FF92EF92DF927B012E
:102B80008C01689406C0DA2EEF010E941D13FE012D
:102B9000E894A5912591359145915591A6F3EF01C2
:102BA0000E942C14FE019701A801DA9469F7DF90C6
:102BB000EF90FF900F911F91CF91DF9108959B01AE
:102BC000AC0160E070E080E89FE30C9481140C9409
:102BD00077130C94A5160E94A713D8F39923C9F371
:102BE000940F511DA3F39150504094F059F0882355
:102BF00032F0660F771F881F91505040C1F79E3FFB
:102C000051052CF7880F911D9695879597F9089592
:102C10005F3FACF0983E9CF0BB2786957795679513
:102C2000B79508F4B1609395C1F7BB0F58F711F44D
:102C300060FFE8CF6F5F7F4F8F4F9F4FE3CF0C94C4
:102C4000C21316F00C94A5160C947D1368940C9482
:102C500077130E94A713A8F39923C1F3AEF3DF9370
:102C6000CF931F930F93FF92C92FDD2788232AF05C
:102C70002197660F771F881FDAF720E030E040E8E1
:102C80005FEB9FE3883920F0803E38F021968F7704
:102C90000E941514E0E9F0E004C00E941514EDEB69
:102CA000F0E00E94B8158B01BE01EC01FB2E6F57BE
:102CB00071097595771F880B990B0E94AB1228E15B
:102CC00032E741E35FE30E941D13AF2D9801AE018F
:102CD000FF900F911F91CF91DF910E942C140C94C3
:102CE0008E13FA01DC01AA0FBB1F9B01AC01BF5779
:102CF00028F4222733274427507820C0B75190F476
:102D0000AB2F0024469537952795011CA395D2F348
:102D1000002071F0220F331F441FB395DAF30ED059
:102D20000C94141461307105A0E88A07B94630F498
:102D30009B01AC016627772788279078309621F091
:102D4000208331834283538308959F3F31F0915014
:102D500020F4879577956795B795880F911D96957F
:102D6000879597F90895052E97FB1EF400940E940D
:102D7000CA1657FD07D00E94D81307FC03D04EF4A3
:102D80000C94CA1650954095309521953F4F4F4F62
:102D90005F4F089590958095709561957F4F8F4F07
:102DA0009F4F0895B7FF0C94FA130E94FA13821BE9
:102DB000930B0895EE0FFF1F0590F491E02D0994F9
:102DC000FB01DC0102C001900D9241505040D8F748
:062DD0000895F894FFCF06
:102DD60000008103800000000000010000000000E8
:102DE6000502620192015702C301A101B50100006B
:102DF60000003C040F0486048F015B01FC03ED0315
:102E0600564D4450565F317C315F564D4450560AFC
:102E160000564D4450455F003A323A007C005F56FA
:102E26004D445045000D0A002D2D2D2D2D2D2D2DF7
:022E36002D006D
:107800000C94343C0C94513C0C94513C0C94513CE1
:107810000C94513C0C94513C0C94513C0C94513CB4
:107820000C94513C0C94513C0C94513C0C94513CA4
:107830000C94513C0C94513C0C94513C0C94513C94
:107840000C94513C0C94513C0C94513C0C94513C84
:107850000C94513C0C94513C0C94513C0C94513C74
:107860000C94513C0C94513C11241FBECFEFD8E036
:10787000DEBFCDBF11E0A0E0B1E0EAE8FFE702C063
:1078800005900D92A230B107D9F712E0A2E0B1E065
:1078900001C01D92AD30B107E1F70E942D3D0C945F
:1078A000C33F0C94003C982F95959595959595958B
:1078B000905D8F708A307CF0282F295A8091C0000B
:1078C00085FFFCCF9093C6008091C00085FFFCCF60
:1078D0002093C6000895282F205DF0CF982F809127
:1078E000C00085FFFCCF9093C6000895EF92FF92F1
:1078F0000F931F93EE24FF2487018091C00087FD22
:1079000017C00894E11CF11C011D111D81E2E8164D
:1079100081EAF80687E0080780E0180770F3E09135
:107920000401F091050109958091C00087FFE9CF1E
:107930008091C6001F910F91FF90EF9008950E94D3
:10794000763C982F8091C00085FFFCCF9093C600B5
:1079500091362CF490330CF09053892F089597555D
:10796000892F08951F930E949F3C182F0E949F3CCF
:107970001295107F810F1F9108951F93182F882350
:1079800021F00E94763C1150E1F71F9108951F935A
:10799000182F0E94763C803249F0809103018F5F5E
:1079A000809303018530C1F01F9108958091C0003C
:1079B00085FFFCCF84E18093C6008091C00085FFE5
:1079C000FCCF1093C6008091C00085FFFCCF80E102
:1079D0008093C6001F910895E0910401F091050184
:1079E00009951F9108950E94763C803241F0809164
:1079F00003018F5F80930301853081F008958091AA
:107A0000C00085FFFCCF84E18093C6008091C00058
:107A100085FFFCCF80E18093C6000895E0910401CA
:107A2000F09105010995089548EC50E08823A1F0F4
:107A30002D9A28EE33E0FA013197F1F721503040CA
:107A4000D1F72D9828EE33E0FA013197F1F7215064
:107A50003040D1F7815061F708953F924F925F9285
:107A60006F927F928F929F92AF92BF92CF92DF924E
:107A7000EF92FF920F931F93CF93DF93000082E06A
:107A80008093C00080E18093C4001092C50088E11B
:107A90008093C10086E08093C2005098589A259A3E
:107AA00081E00E94143D24E1F22E9EE1E92E85E959
:107AB000D82E0FE0C02E10E1B12EAA24A394B1E479
:107AC0009B2EA6E58A2EF2E57F2EE0E26E2E79E46B
:107AD000572E63E5462E50E5352E0E94763C8033C6
:107AE000B1F18133B9F1803409F46FC0813409F404
:107AF00076C0823409F485C0853409F488C08035A5
:107B000031F1823521F1813511F1853509F485C0D6
:107B1000863509F48DC0843609F496C0843709F49B
:107B200003C1853709F472C1863709F466C08091B4
:107B300003018F5F80930301853079F6E0910401A2
:107B4000F091050109950E94763C803351F60E9420
:107B5000F33CC3CF0E94763C803249F78091C0004D
:107B600085FFFCCFF092C6008091C00085FFFCCF5E
:107B70009092C6008091C00085FFFCCF8092C60025
:107B80008091C00085FFFCCF7092C6008091C0003C
:107B900085FFFCCF6092C6008091C00085FFFCCFBE
:107BA0005092C6008091C00085FFFCCF4092C60075
:107BB0008091C00085FFFCCF3092C6008091C0004C
:107BC00085FFFCCFB092C60088CF0E94763C8638F5
:107BD00008F4BDCF0E94763C0E94F33C7ECF0E9409
:107BE000763C803809F49CC0813809F40BC1823896
:107BF00009F430C1883909F48FC080E00E94C73C85
:107C00006CCF84E10E94BD3C0E94F33C66CF85E0CE
:107C10000E94BD3C0E94F33C60CF0E94763C809362
:107C200006010E94763C809307010E94F33C55CFE9
:107C30000E94763C803309F411C183E00E94BD3C70
:107C400080E00E94C73C49CF0E94763C80930902A5
:107C50000E94763C8093080280910C028E7F809374
:107C60000C020E94763C853409F409C18091080217
:107C700090910902892B89F000E010E00E94763C87
:107C8000F801E85FFE4F80830F5F1F4F809108026D
:107C9000909109020817190788F30E94763C8032F8
:107CA00009F045CF80910C0280FFF5C0609106017C
:107CB00070910701660F771F7093070160930601AB
:107CC000A0910802B09109021097C9F0E8E0F1E034
:107CD0009B01AD014E0F5F1FF999FECF32BD21BD53
:107CE000819180BDFA9AF99A2F5F3F4FE417F5070B
:107CF00099F76A0F7B1F70930701609306018091CB
:107D0000C00085FFFCCFF092C6008091C00085FFC7
:107D1000FCCFB092C600E1CE83E00E94C73CDDCE2E
:107D200082E00E94C73CD9CE0E94763C8093090233
:107D30000E94763C80930802809106019091070191
:107D4000880F991F90930701809306010E94763C4B
:107D5000853409F49AC080910C028E7F80930C02C6
:107D60000E94763C803209F0B8CE8091C00085FF39
:107D7000FCCFF092C600A0910802B09109021097C2
:107D8000C1F180910C02082F0170182F1695117007
:107D9000E0910601F0910701AF014F5F5F4FBA011B
:107DA00020E030E00023B1F4112339F49491809164
:107DB000C00085FFFCCF9093C6002F5F3F4FCB01E3
:107DC0000196FA012A173B0780F4BC014F5F5F4F11
:107DD000002351F3F999FECFF2BDE1BDF89A90B5B9
:107DE0008091C00085FFFCCFE6CF709307016093C0
:107DF00006018091C00085FDE5CE8091C00085FF21
:107E0000F8CFE0CE81E00E94C73C67CE0E94763C6E
:107E1000803209F08CCE8091C00085FFFCCFF092BB
:107E2000C6008091C00085FFFCCFE092C600809123
:107E3000C00085FFFCCFD092C6008091C00085FFB6
:107E4000FCCFC092C6008091C00085FFFCCFB092ED
:107E5000C60043CE80E10E94C73C3FCE0E94763CE4
:107E60000E94763C182F0E94763C112309F483C0AF
:107E7000113009F484C08FE00E94C73C2ECE80915F
:107E80000C02816080930C02F1CE80910C02816023
:107E900080930C0265CF809107018823880F880B9F
:107EA0008A2180930B028091060190910701880F2F
:107EB000991F90930701809306018091080280FF2B
:107EC00009C08091080290910902019690930902DD
:107ED00080930802F894F999FECF1127E0910601EA
:107EE000F0910701C8E0D1E0809108029091090269
:107EF000103091F40091570001700130D9F303E084
:107F000000935700E8950091570001700130D9F3B4
:107F100001E100935700E8950990199000915700EE
:107F200001700130D9F301E000935700E8951395F3
:107F3000103498F011270091570001700130D9F3E7
:107F400005E000935700E89500915700017001305B
:107F5000D9F301E100935700E8953296029709F0B2
:107F6000C7CF103011F00296E5CF11248091C000E8
:107F700085FFC5CEC8CE8EE10E94C73CAECD85E957
:0A7F80000E94C73CAACDF894FFCF81
:027F8A00800075
:040000030000780081
:00000001FF